:4000000000400020110000003D0500003D05000008B500F095FAC04638B51222204B1A6000F0D0FB1F4800F00FFB012000F0EAFB302000F019FB1C4A1C4B1A601C4C8025C9
:40004000ED0525601B4B196802220A431A601A4A1A4B1A601A4B1A6808218A431A60FA20C00000F079FB174800F06CFB164A174B1A60174A174B1A6080221206164B1A609B
:400080008022D202154B1A604022154B1A600820144900F02FFB082000F020FB256038BD30001040001BB7000600008004010B400C020B4078002E402D3E00007C002E40AC
:4000C0006CF02E40DC050000005F09000003014040FF00800000014008010B4000010B402C0101402109000038B572B60022284B1A600024274D0CE063001B195B00EB18D4
:4001000099881A8858880004104300F095FA0134E4B2012CF0D91F49081C0C30243100F05FFA1D4A1D4B1A60C02292051C4B1A6099231B041B4A1360842189031A4A1160C3
:400140001A4A13608022D205194B1A60194B197802220A431A70184A11783C208143142001431170197816220A431A700522134B1A60134A134B1A608022134B1A60134AB2
:40018000134B1A60FFF748FF00F046FA38BDC0466CF02E4020120100030300EE000002400001024000500F4008500F4010500F4018500F4000700F4001700F40000004401A
:4001C0008601D8000800044000010440B66DDB000801044010B5064C2378002B07D1054B002B02D0044800E000BF0123237010BDF003002000000000A411010008B5084B7A
:40020000002B03D00748084900E000BF07480368002B03D0064B002B00D0984708BDC04600000000A4110100F4030020C80000200000000030B583B00C1C282815D006D8CB
:40024000242821D0262817D0012844D106E0412823D04C2830D02C283DD119E01F4800F041F91F4800F0A4F835E01C4800F05CF91B4800F09DF82EE01A4B1B78042B2AD163
:40028000174800F095F826E0154800F027F922E01A31134800F0ACF81DE0087869460AF059FB0F480099019A00F0AEF8002812D120780AF0EFFA0EE0084D281C00F014F90E
:4002C000281C211C00F01EF9074B1A785878000210430BF067FE03B030BDC0460813002020130020301E0020381E002008B50F480F4900F023F862B600F066FC0C2000F0F8
:4003000017FC0020002100F06FFC0A4800F002FC0120002100F068FC074800F0FBFB00F0E9FC00F055FD01F0B9FAFCE72013002035020000001201001012010070B594B03C
:40034000041C081C00F06EFD002801D1002500E00125601C0AF0B6FA002800D006256378002B1CD012AEA11C301C062201F077FA237AB371201C2E30311C0AF0FCFA6946E4
:400380004F3101230B702E23E05C01AA0AF004FB201C1E3069461E31102201F060FA00222F23E25402232370281C14B070BDC04670B5002000F0B4FD061C0B4C0B4D00E0B4
:4003C0001C1C01F06BFA2B78012B04D1631E9BB2002CF5D11C1C002C01D0002000E00920002E00D0022070BDFFFF0000301E002008B5002905D01E30102201F030FA00207E
:4004000000E0042008BDC04610B58CB0009101920023089309930A930B93039302930378022B0CD0012026E0DA1C6C46A15C08AAD154E15C02AAD1540133DBB200E000230F
:40044000022BF1D9011C1E3108A804AA02F0ACFE002305E004AAD15C03AAD1540133DBB2022BF7D903A802A901F00AFA002801D1012000E000200CB010BDC04638B5041CAA
:40048000451C281C0AF01EFA00281CD16378012B08D90AF0A3FA002817D1281C0AF012FA002814D10C4C00E01C1C012000F0FEFC002804D0631E9BB2002CF5D11C1C002CEF
:4004C00007D1092006E0062004E0072002E0062000E0002038BDC046FFFF000008B5FFF7CDFF08BD7047C0468B89044A52889A4201D1002000E0024800B2704780180100AC
:40050000FFFF00008A89074B1B899A4207D14B681B78012B01D1037501E00023037500207047C0468018010000230375002202E0C25401339BB2132BFAD97047FEE7C04669
:40054000F8B50F4F0F4E002412E031687368B568221C02E001C901C30432AA42FAD1F168221C01E010C304328A42FBD11036013F002FEAD101F03EF9FFF7B8FEFEE7C04689
:4005800001000000B018010038B5104B1A6801218A431A6000230E4C0E4D0F4808E0032B02D89A00515900E0211C9A00115001332F2BF4D9FFF798FD0022084B1A60034BA0
:4005C000196801220A431A6038BDC046000010403D0500000000000000000020C0000020F0B500220027FF239C4611E0BB00C658F3B26446A64308E054000C192578AD194B
:4006000064782C700132013BDBB2002BF4D10137052FEBD9F0BDC0460323044A1360044A13600022034B1A607047C0463000304030003140000E3F4008B50A1C002101F061
:4006400017F908BD000000000230800803D00138FDD1C046C046C0467047EFF3108072B6704780F31088704710B586B0041CFFF7F4FF0E4B1B6800930D4B1B680193033C14
:400680000C4B1B5D02930C4B1B68039304AA0B4B049300AB05930A4B1A600A490A4A11601B68FFF7DEFF06B010BDC04608010B4000010B408013010030001040B6EA00006E
:4006C000080010401700008004001040024B1B68012018407047C0460C002E401F23184001238340181C014B1860704700E100E001BE704738B5041C0D1C1F2802D9002058
:40070000FFF7F6FFA400024BE4182068256038BD4000002070B5041C80252D02074E04E03068FFF791FF064BE418AC42F8D8034B58686043FFF788FF70BDC046CC000020B7
:400740000080FFFF08B5034B1B7A5843FFF77CFF08BDC046CC00002010B5041C0F4B196801220A431A600E4A0E4B1A600E4B1968802212020A431A60002809D100200CE05E
:400780000120FFF7DFFFFFF7A1FF002804D1013C002CF5D1102000E0002010BD60F02E400220000078002E4010002E40044B1A68C0231B021A4201D0012000E0002070476B
:4007C00000010B4010B50D4B1A6801218A431A601A68022082431A60094A10683024A04310242043106010680724A043014311601968802212060A431A6010BD00F02E4051
:4008000000FF2E4038B5031C1D4A12680120041C1440002B02D0012B16D02BE0184B19680122914319601968022081431960154B19683020814310200143196019680720F1
:4008400081430A431A6018E00D4B1A6802218A431A600C4A10680725A84301431160116830208143202001431160196801220A431A6002E00020FFF73BFF201C38BDC046C1
:4008800000F02E4000FF2E4008B5FFF7E6FE044B1968C02212020A431A60FFF7E2FE08BD00010B4010B5FFF7D8FE084B1968084A11408024E4012143196019680A40802188
:4008C00009020A431A60FFF7CCFE10BD00010B40FF3FFFFF38B5051CFFF7BFFE041CFFF765FF002803D0FFF7DDFF012200E00022084B1D40084B1868084901400D431D6002
:400900001B68012A01D1FFF7BFFF201CFFF7A9FE38BDC0460404040010020B40FBFBFBFF10B5244B1B685A0715D5234B1B685A070ED5224B9C69042214401F490868A04378
:400940000860996991439961DB68002B00D098470420FFF7BFFF174B1B685A0518D5164B1B685A0510D5154B9A698020C0001040114A1168814311609969114A0A409A6133
:400980001B69002B00D098478020C000FFF7A2FF084B1B685A030CD5074B1B685A0304D5064B5B69002B00D098478020C002FFF791FF10BD10020B40DC0000200C04002096
:4009C000FFFBFFFF10B50B4C236860229343236023680F2293432360236810221043184320600120FFF7AEFE236810229343236010BDC0460001044038B5051C0E4C22689A
:400A000020231343236023684022934323600020FFF798FE23680F22934323602368102215431D4325600120FFF78CFE236810229343236038BDC04600010440F0B5474670
:400A400080B4294B1A687F218A431A60274A1168090B09032648014311601A6820218A431A60196840220A431A60CA2676001C1C1025204B98460020FFF764FE23682B43F7
:400A800023600120FFF75EFE43461F682368AB4323600020FFF756FE08231F4023682B4323600120FFF74EFE2368AB432360002F02D10A20FFF746FE013E002F01D0002E92
:400AC000D9D1094B1A6840218A431A601A687F218A431A60054B1A68120B120306490A431A6004BC9046F0BD00010440080104404902000004010440B60D000010B5041C3A
:400B0000FFF79CFF2009FFF777FF0F202040FFF773FF10BD38B5051C0078012404E0FFF7EDFF285D0134E4B20028F8D138BDC04610B5041CFFF782FF2009FFF743FF0F2032
:400B40002040FFF73FFF10BD08B52820FFF7E2FD0320FFF737FF0520FFF7DCFD0320FFF731FF0F20FFF7D6FD0320FFF72BFF0120FFF7D0FD0220FFF725FF0520FFF7CAFD71
:400B80000620FFF7D5FF0E20FFF7D2FF2C20FFF7CFFF0820FFF7CCFF0120FFF7C9FF0C20FFF7C6FF0320FFF7C3FF0520FFF7B2FD08BDC04608B50C20FFF7BAFF0122014B1A
:400BC0001A7008BD2804002008B5064B5B78002B04D1FFF7B9FF0122024B5A70FFF7EAFF08BDC0462804002008B501280BD0002804D002280CD003280FD012E08039C8B2A9
:400C0000FFF796FF0DE04039C8B2FFF791FF08E06C39C8B2FFF78CFF03E02C39C8B2FFF787FF08BD024B197880220A431A70704773000F40014B18707047C04603000F4085
:400C4000014B18707047C04643000F40014B18707047C04623000F40014B18707047C04633000F40014B18707047C04683000F40014B1878C0B2704763000F40014B187845
:400C8000C0B2704753000F4010B5102401E0FFF7F5FFFFF7EDFF0442F9D110BD10B5134B1A783F218A4309210A431A70104C2278012313432370FF20FFF7BCFFFF20FFF71B
:400CC000BFFF3220FFF7C2FF3F20FFF7C5FF0020FFF7C8FFFFF7C1FC2278102313432370FFF7BFFCFFF7D0FF10BDC04673000F4093000F4008B5064B1B78002B04D1FFF74A
:400D0000CDFF0122024B1A70FFF78CFF08BDC0462A040020024B197880220A431A70704772000F40014B18707047C04602000F40014B18707047C04642000F40014B1870AC
:400D40007047C04622000F40014B18707047C04682000F40014B1878C0B2704762000F40014B1878C0B2704752000F4010B5102401E0FFF7F5FFFFF7EDFF0442F9D110BD04
:400D800010B5114B1A783F218A4309210A431A700E4C2278012313432370FF20FFF7C2FFFF20FFF7C5FF3220FFF7C8FF0020FFF7CBFFFFF752FC2278102313432370FFF7C3
:400DC00050FCFFF7D3FF10BD72000F4092000F4008B5064B1B78002B04D1FFF7D1FF0122024B1A70FFF796FF08BDC0462B04002008B500F04DFA08BD10B50024054B1C70EC
:400E0000054B1C70054B1C70FFF7F2FF044B1C7010BDC0463B1E0020341E00203A1E00205813002010B58AB0041C2023164AD35C002B05D1FFF7E0FF01212023124AD154CA
:400E4000002C1ED004A81149182200F008FD062300930F4B01936E23FF3302930D480E490E4A04AB00F030FD0D4B1C60002809D101220C4B1A700C48112114220BF0ACFD17
:400E800000E001200AB010BD2C04002000140100801401007910000060130020CC0A00005C130020301E00200016010010B5041C174A1278D3070BD507F056F800280AD1D8
:400EC00013490B78012293430B709A0702D402E0002000E02820002801D0002C16D00C4B1B789A0712D50B4B197804290ED88900094BC91809480422231C07F023F80028D9
:400F000004D1034B197802229143197010BDC04658130020381E0020001801002C1E002008B502282ED81B4B1B78042B2CD11A4B1B7859072BD4002809D1184B1E221A8677
:400F40002022596A0A805B6A30225A800CE001280AD1124B78221A86C822D200596A0A805B6A8022D2015A800D4B18700B48203009F08EFE00280CD1074B197804220A43EA
:400F80001A7006E0012004E00420FF3001E00420FF3008BD301E00203B1E0020E00000203A1E00207047C04603784078000218437047C04638B5041C83890B2B1FD1043094
:400FC0000021221C40230BF01FFD051E11D16068FFF7EAFF830706D50A4B1B6882204000211C984705E0074B1B680620FF30211C9847054B1A7801218A431A7000E00025A6
:40100000281C38BD5C1300203B1E0020024B00225A701A707047C046381E00208379002B07D000200BE0C25C002A07D10133DBB200E00023052BF6D9002000E001207047B5
:4010400010B582B0041CFFF7B5FF0A4B1B78D9070ED4002809D001A912238B70A3890B80C87020680AF038FF02E020680AF09AFF02B010BD3B1E0020F0B583B0041C0E1C6B
:40108000744B1D7801222A431A70282876D00CD821285ED004D8012819D0052855D0C7E026286FD0272865D0C2E0432800D1AEE006D8412800D199E0422800D1A4E0B7E086
:4010C0004C2800D1ABE0FA2800D1ACE0B0E001AD07272F7000236B70281C02F0BAF82F7001236B70281C02F0B4F85B4B1D68281CFFF794FF00280CD0281C00F0D3FB564D8F
:4011000028680021FFF74EFF28680121FFF74AFF14E0524B1B78524D2B70524B1B786B70514B1B78AB70281C00F0BCFB281C0021FFF738FF281C0121FFF734FF002009F0F2
:4011400069FC0422494B1A7072E00A78484B1A706EE0404B1B7899066AD4464B1B78102B02D10522434BDA70434B1878414909F059FD5DE002223D4B1A7059E004223B4B0C
:401180001A7055E0394B1B78022B51D0314A1278D1074DD52F4A1278510708D50322334B1A702C4B1A7804218A431A7040E0294A1278110708D504222C4B1A70254B1A78E7
:4011C00008218A431A7033E0032B31D10422274B1A702A4B1B78002B2AD10120FFF7A0FE002825D10322214B1A7021E0224D281C022200F034FB29788900214B5918214887
:40120000042200F02CFB13E0FFF700FF10E04988162900D9172130880AF06AFE08E0081CFFF70EFF04E0184B197801220A431A70084B1A7811231A4209D0064B1A7801212A
:401240008A431A70114B1B68201C311C984703B0F0BDC0463B1E0020140100207CF1FF0F180100207DF1FF0F7BF1FF0F301E0020341E0020C4010020381E00203A1E00205F
:40128000001801002C1E0020581300205C1300207047C04608B5FFF7E0F9044B1A6804218A431A6030BFFFF7DCF908BD10ED00E0F0B55F4656464D464446F0B4A3B08046EF
:4012C0000E1C171C8A18234B9A4233D8C9098A46CC0100218C460025AB460123994623E0B4420DD3BD420BD202A9C85C41464A5D904203D002A9CA5449460191013502E0C6
:40130000227802A9CA540134013301E05B4601937F2BE5D90199002904D0504602A900F041F9844601229244BD4205D26346002BECD001E001218C466246012A02D9012094
:4013400040428446604623B03CBC90469946A246AB46F0BDFFFF01000160704701607047244B1A781202244B1B781A43234B1B781B02234909780B4322498B4201D1072A3E
:4013800006D0D42109018B4206D1042A04D102E01D4B042200E01C4B1C490B601C4B1A601C4B1B781B021C4A1278134380229201934202D0002B02D002E0184B00E0174B8C
:4013C000174A1360174B1B781B02174A12781343164A934205D0164A934204D0052B05D103E0144B02E0134B00E0124B124A13607047C046D9F0FF0FD8F0FF0FDFF0FF0FD8
:40140000DEF0FF0F580B0000580D00006C002E4074002E40DBF0FF0FDAF0FF0F0220000078002E40DDF0FF0FDCF0FF0F0F0F000005050000050F000080002E4008B5FFF701
:4014400081F908BD08B500F031F808BD08B500F035F808BD08B500F031F8034800F00EF8032000F011F808BD8D16000008B5024800F02CF808BDC0468D160000014B186704
:401480007047C0460000002010B5041CFFF7E5F8054B1968C0229143A2010C1C14431C60FFF7DFF810BDC0460CE400E080225201014B1A607047C04600E100E080225201D4
:4014C000014B1A607047C04680E100E010B5041CFFF7F4FF201CFFF7D1FF0320FFF7D4FFFFF7E4FF10BDC04682B00B4B00930B4B043301930A4B00AA1A600A490A4A1160F3
:401500001B681B0F0A2B04D0054B1B680F20184000E0002002B07047B6E90000F4120020080010401600008004001040084B094A1A600949094A11601B681B0F0A2B04D03F
:40154000034B1B680F20184000E000207047C04608001040B6E80000150000800400104082B00B4B00930B4B043301930A4B00AA1A600A490A4A11601B681B0F0A2B04D0F4
:40158000054B1B680F20184000E0002002B07047B6EA0000F412002008001040170000800400104030B5A5B0041C0023239322932D4B984252D8002950D002A8802200F076
:4015C0004EF92A4B9C4201D9294B00E0294B00937F230193284B00AA1A602849284A11601B681B0F0A2B04D0234B1B680F22134000E000232393239B002B31D1FFF72DF811
:40160000051CFFF771FF2290229B002B02D1FFF78DFF2390239B002B16D11A4B0093009B24041C430094144B00AA1A601649144A11601B681B0F0A2B04D00F4B1B680F228E
:40164000134000E000232393229B002B02D1FFF787FF2290281CFFF704F801E004232393239825B030BDC046FF030000FF010000B6D70001B6D70000080010400400008005
:4016800004001040B6D800000500008008B50FF075FD08BD002934D00123002210B488422CD301242407A14204D2814202D209011B01F8E7E400A14204D2814202D24900AE
:4016C0005B00F8E7884201D3401A1A434C08A04202D3001B5C0822438C08A04202D3001B9C082243CC08A04202D3001BDC082243002803D01B0901D00909E3E7101C10BC4A
:401700007047002801D00020C04307B4024802A14018029003BDC046D90000000029F0D003B5FFF7B9FF0EBC4243891A1847C046002941D010B4041C4C40A4460123002225
:40174000002900D54942002800D5404288422CD301242407A14204D2814202D209011B01F8E7E400A14204D2814202D249005B00F8E7884201D3401A1A434C08A04202D3DC
:40178000001B5C0822438C08A04202D3001B9C082243CC08A04202D3001BDC082243002803D01B0901D00909E3E7101C6446002C00D5404210BC7047002806D003DB002043
:4017C000C043400801E08020000607B4024802A14018029003BDC046190000000029EBD003B5FFF7A7FF0EBC4243891A1847C0467047C04670B50E4B0E4D0024ED1AAD1099
:401800001E1CAC4204D0A300F35898470134F8E710F03CF8084B094D0024ED1AAD101E1CAC4204D0A300F35898470134F8E770BD981801009818010098180100A018010030
:4018400030B50023934208D0C55C0133CC18013C2478A542F6D0281B00E0002030BD10B50023934203D0CC5CC4540133F9E710BD031C8218934202D019700133FAE770475E
:4018800002780B7801300131002A01D09A42F7D0D01A704710B501F033FC10BD10B500F067F910BD10B50749044609780220002907D1204601F061FC002802D1204609F0E4
:4018C00093F910BDD2020020FFB585B0002568460E9F057339481C460078002802D0082009B0F0BD10990F9801900097029105A807C800F067F80028F2D10120694603AA99
:401900000D73002C1BD0002113E08B00E55A082D09D91E19B678002E05D0083DE55213785B1C137003E0042901D2012003E0491CC9B2B942E9D31178042900D30020002863
:40194000CED110990F9800F08DFF002801D00120C6E701F0D5FB1A480599016021888180A188C180A27A0272A17B4172A089012540084843A0810220A0732089504320814B
:40198000A5726846037B22460799069800F0A2F80028A5D16846094C007B607001F0B8FB00289DD1064806F081FA002898D106F09DFA002894D1257092E70000C80100202D
:4019C00050040020FFB53A4F1C4603463F780020364A0A9E0B9D002F12D100290FD0029991420CD3002B0AD0002C08D00999042905D3002E03D0FF216E318D4202D2012049
:401A000004B0F0BD00210A460D463FE08B001E19B678002E36D0E35A002B33D073435B199DB20B0000F048F806040E15191D253F2388FF27A678233BEB37BB42DFD2032E0A
:401A4000DDD31FE0A3880C2BD9D91A4EB342D6D818E02389302BD2D114E0A389482BCED110E0228A134E1346233B223EB342C6D208E0A38A0F4F1E46233E223FBE42BED2FA
:401A80009342BCD80028BBD1491CC9B2099B9942BCD319461C2251434A190449521802998A42ACD8ACE70020EEE70000D8080000C8010020DCFF000030B47446641E2578FC
:401AC000641CAB4200D21D46635D5B00E31830BC18470000FFB50F4606460024384381B01D46800701D0012438E0FFF7BFFCFFF7ADFC00F097FA00282ED100F0D3FB0028E8
:401B00002AD11849084600F0E1FE0004000C23D13000154E04D03060B7800020F0803581AD1DEFB23946039800F046F804000ED1B088F2880837801AF9B280B201F0B6F916
:401B4000002801D0012407E0E8B200F019F900F031F906490120087000F076FA204605B0F0BD0000A51C00005C040020CA01002010B503480078012801D101F039F810BDFC
:401B8000CA01002070B5084B0446DA889E8800205518B54206D81D68AA182260DA885118D98070BD032070BD5C04002001480089704700005C040020F0B587B007460D461F
:401BC00000208900009006916846FFF7DBFF844600285DD1304800990160002117E02E4B88001A680629115406D22C4C0419667882185670628805E0C419203CA67A821869
:401C0000567022891B68C018491C4280C9B2A942E5D300242DE0601CC2B2059025E01E4FA30039689600581840887118039604904E88B04217D938466F46FE80B6464F7877
:401C40006E4677710297049F4F800168039F5E18767879184E700168764659184E800068029F18184770521CD2B2AA42D7D30598C4B2AC42CFD36046002809D1684606998B
:401C8000FFF780FF8446002802D1054900980860604607B0F0BD0000CC010020C0180100D00100207047000010B5002809D005494A68002A05D0011F08788000105801F0E6
:401CC000A3F810BDCC01002010B50446FFF76EFFC0B2801DA0420CD307484068002808D0A100405801F002F8002801D00470001D10BD002010BD0000CC010020F8B51646F8
:401D00000D460446FFF752FFC0B2801DA04203D20020C0430090F8BDB2B2E9B2684601F00BF80099481C03D0024AA000526811500098F8BDCC010020F8B50746FFF736FFBA
:401D4000801DC6B20A49002005460C680DE06178002907D06188B94202D32078FFF7B4FF002804D1241D6D1CEDB2B542EFD3F8BDCC01002010B5002801D0FFF795FF10BD86
:401D800070B506460948002504680BE06178002905D062882078121D0023FFF7AFFF241D6D1CEDB2B542F1D370BD0000CC010020002070471CB5002469460C70142001909C
:401DC0002346054A05480CF01DFE04480068401C00D1FF2420461CBD311E0000D40100203EB5124A0146FF2000230124126800290DD0012914D0042908D104206946009349
:401E000008814B8110460CF0F8FD80B23EBD6846009304814381694610460CF0E9FDF4E768460093048143816946EBE7D401002070B545890468416800890300FFF73CFEC9
:401E400006240408081D2124002005F005F81BE0022908D0C8B22A4621460BF04DF82046FFF788FF10E002202A4621460BF044F82946204600F00AF806E000200CF0B6FAA5
:401E800002E020460CF044FE002070BD014B0022DB681847D801002070B5448905680089022803D0032809D0FF2070BD2246094C0023A46829460120A04708E0FFF7EAFCEA
:401EC000241DA2B200232946022005F0D2FE002070BD0000D801002070470000024800214160018041807047D801002070B50C46002186B016460391012802D0022859D1CC
:401F000016E003A9012005F00CFF01281BD1039D324621462846FFF7A2FC0095287801900220694608814E816846FFF7B5FF41E0214D002B686809D0049004A9022005F046
:401F4000F0FE01281DD0022006B070BD002812D0298840182146FFF782FC28880024801980B228806988091D884206D12C801348FFF792FF03E00320E6E788421AD96C6081
:401F800018E004986860E278A378110219430B4A698000231060E3565360032313815181A1788170E178C1706178417021780170042028800020C7E7D80100206804002051
:401FC0003EB515460C46022803D004280CD000203EBD0091019002206946088107484A8100680CF00AFD07E00AF086FF044B0022DB6829462046984701203EBDD401002041
:40200000D8010020014AD16090607047D8010020034801688068081A0A214843000970477404002010B5FFF715FA542204490548FFF715FC03490120C870002010BD00004C
:40204000DC1801005407002010B5FFF7FBF910BD70B5134C2368002B08D0207B1149C20705D04008400020738868A08070BD88680B4AA18880B29268814203D90A4D691A64
:40208000091802E0814202D2411A5118A160A080A0689842EAD300F015F80CF0CBFC70BD74040020C0102E40FFFF000010B508461946FFF7A7FF10BD704710B5FFF780FF75
:4020C00010BD000003480021016041608160C160704700007404002010B502000DD0FFF7F1FF074C0321207B0843207310010A21FFF714FB2060002010BDFF2010BD000040
:402100007404002000B504480A21806848430209FFF7D8FF104600BD740400200248007B8007C00F704700007404002010B537490868002802DA364B01221A70022290439D
:402140000860344800693149C00B4031096A08425AD0012000F02AFA2E482F497C30FFF7FDF82A480E216C30FFF7F8F8294820218430FFF7F3F8274814219C30FFF7EEF805
:402180002448FF21C131A430FFF7E8F82148FF212F31B030FFF7E2F81E482049BC30FFF7DDF81C481E49AC30FFF7D8F81C491948491CB430FFF7D2F816481A49B830FFF7FD
:4021C000CDF814481849CC30FFF7C8F8114817490830FFF7C3F80F481549A830FFF7BEF80C4814498830FFF7B9F80A4812498C30FFF7B4F807481921C9029030FFF7AEF805
:40220000FFF7AEF8002010BDFF2010BD00F02E40E801002000002E4055650000320300002F3F00003102000010520000EC160000FA12000031D000003AE3000070B50646C5
:40224000581C80B245086D00002408E0304600F07FF81055000A1119A41C4870A4B2AC42F4D3D80705D0D0182038D15CC47FD454C17770BD30B50A4C002100195B1E07E033
:40228000541864782502545C2C430480891C89B29942F5DB994201D1515C018030BD000000102E4010B5FF2000F080F90F49FF2048700E481021801D418001214170017096
:4022C0000A490020C91C4870FFF730FF04000AD100F0CCF807210648FFF73EF8044807211830FFF739F8204610BD0000E8010020CC112E4030B504465B1C1804450C0023D4
:4023000008E0204600F024F8241D59005B1CA4B250529BB2AB42F4D330BD000070B500210A4D5B1E0AE0541864782602545C344346193480001D891C80B289B29942F2DBCB
:40234000994202D1515C4019018070BD00102E40014940180088704700102E40014A80180180704700102E4010B50B490020487000F07CF8002000F03FF9002000F02CF9B3
:4023800007210648FEF7E8FF044807211830FEF7E3FF002010BD0000EB010020CC112E4010B50B46062812D006DC01280CD0032801D1FFF7D9FF10BD0A28FCD00B28FAD153
:4023C00005480078107010BDFFF76CFF10BD1146184600F02DF910BDEE010020F8B5204DAC6A0127A0071F4E002816DA307806280ED1286A384328621B480069F903084313
:4024000081B219481030FEF7A9FF042000F0CEF8134802212830FEF79FFFE00711D0062000F0C4F80F49FF20C91E48707078002802D1686B38436863094801212830FEF77C
:402440008BFFE0050BD53078042802D1052000F0ADF80348FF2101312830FEF77DFFF8BD40F02E40EB01002000002E4010B503212348FEF773FF0120FEF7E0FF20483038F9
:40248000406A204C80076178800F890001431C480C38FEF763FF6078002808D0401E022181401820FFF79AF9C000083800E0B82081B21548FEF752FF13480321090214380C
:4024C000FEF74CFF10481149B830FEF747FF452189010F48FEF742FF0D480321001FFEF73DFF0C490C48FEF739FF0B480B496038FEF734FF084801218838FEF72FFF10BD22
:4025000070F02E40EE010020D8102E4090890000041E2E40FF0F000058122E40209000000849087806280BD148780749002803D1486B400840004863C86A01221043C8628A
:4025400070470000EB01002040F02E400148007870470000EB01002000B50300FFF7ACFA080D050D0B070507090D012000BD032000BD042000BD022000BDFF2000BD00006D
:40258000074A9168D26889B2064B92B2994204D105498A4201D1012100E000210170704780002E4033D000003FE3000010B50446FEF74CFF072C01D9FF2C01D102480470B6
:4025C000FEF740FF10BD0000EB0100200149487070470000E801002010B5064A012805D01921C9021046FEF7B9FE10BD1D21C902F8E7000090002E4010B50A4A141D0128CC
:4026000008D009491046FEF7A9FE08492046FEF7A5FE10BD04491046891CFEF79FFE0349491DF3E788002E4031D000003AE300000078074AFF2803D04C2804D9553803E064
:402640001078087070474F380870107070470000EA010020F0B50122002830D000292ED00224420600D003246D2342065B06D21800D0641C034600221EE00C2516466E43CC
:40268000104D00277519AF720E4F002ABB51696007D0661EB24209D106466D367606760E05E05E06760E8027BE1B00E080269B198919521C2E81D2B2A242DED3002210469C
:4026C000F0BD0000F4050020F8B507460020002F03D100F0E9FD002827D1154E002421460C2251438D19AA7A012A0DD12A8971586868FEF7DDFD002800D028200021A972E7
:40270000002F05D0282803D0641CE4B2042CE6D3641CE1B207E00C224A439219927A012A04D0491CC9B20429F5D3F8BD2820F8BDF4050020074900200C2242435218927ACF
:40274000012A05D0401CC0B20428F5D30020704701207047F4050020F8B5044616460F000BD0184D6868A04203D9FF306E30A04203D3FF206E30864201D90120F8BD20467F
:40278000FFF75EF800281BD0324639462046FFF766F8F0B200210C224A43521913895668F718A74208D90127A41B1B1B9772834206DAC01A1469C0B2491CC9B20429EAD38F
:4027C0000020F8BDF405002010B500F05BF80648FF22C1686E320C460448FFF740F803492046FFF737FF10BDF401002084040020002070470020054A002902D0012902D03A
:4028000002E0506000E0906000207047F401002070B5084C154608460549A26889182A46FFF71DF8A0684019A06028B270BD000084040020F40100203EB50A226946FFF7CB
:40284000E7FF044606480A2200686946FEF7F8FF002802D00020C0433EBD20463EBD0000F4010020002803D0FF226E32914201D2FF20704702490A61C86000207047000030
:40288000F4010020024800214160816070470000F401002070B5074C15460548626880182A46FFF759FF60684019606028B270BD84040020F401002010B503490A220968B7
:4028C000FFF7E8FF10BD0000F401002010B50F4A002313600E4A13600E4B18600E4801600E49012008600E490860000290600E490C4808600D4914300860FF381538506038
:4029000000F0BCF800F0CAF9002010BD20020020080200203402002038020020240200201402002024070020180200202C020020014610B50020002910D0094B1A689C68D9
:402940005118A14209D25868196080188A0704D08A07920F891A091D196010BD002010BD08020020F8B50024164E671E321F3D463168136806E01422624310328A58521CAD
:402980001BD0641C9C42F6D36A1C14D02C461422544322460C3288500C214843FFF7C8FF3168002808510AD031680020103408517068401C70602846F8BD2546E4E7384644
:4029C000F8BD000018020020F3B50026F64381B000281BDB1E490968884217D80299002914D01B4F142204463F1D54432546396810354859401C09D0FEF728FD38682F1F4D
:402A00004159C359994203DBFEF71CFD3046FEBD214608310091465801590C20704308180C220299FEF71BFF0948761C001D0068C159B14200D100260549009A091D865098
:402A400008684159491C4151FEF7FCFC0020FEBD14020020002803DB07490968884202D90020C043704704491422091D09685043103008587047000014020020F0B5002012
:402A80000D4A451E0346171F50600FE014260146714314680E1DA3510C461668083433511668083435511468401C635039688842ECD30020F0BD000018020020F3B5002614
:402AC000F64381B0002841DB2349096888423DD8029900293AD0204F142204463F1D54432546396810354859401C2FD0FEF7AEFC3868415900292BD0211D009146580C21D8
:402B0000005971430F46C1190C220298FEF7A7FE11480021001D0068761C00590C34C0190160416081600C48001D00680159B14200D100260849009A091D86500868415903
:402B4000491E4151FEF77EFC0020FEBD3046FEBDFEF778FCFAE7000014020020FEB504460D4600201E49089E0860471E009001900290002C11D0486885420ED2002A0CD0FA
:402B8000002E0AD0642E08D808460C3001681C2068430C18207A002801D03846FEBD0120226020721846FFF7DDFE6060401C13D06681A6810A4827610C3067610179A9421D
:402BC00000D205710021684601810A462846029B00F040F82846FEBD00202072DDE700002002002038B50124009400F039F838BDFEB50027164EFF433D4600240EE01C20CB
:402C0000316860430818017A002906D04068FFF721FF002801D0254603E0641C3079A042EDDA681C12D01C2130684D434419FEF70DFC69466068FFF741FF0546FEF702FCD6
:402C4000002DD9D1216868468847D5E7FEBD00002C02002038B50024009400F001F838BD1FB500220C49541E0A60002811DB496888420ED808491C220C31096850430818A3
:402C8000406801A9FFF7A0FE401C02D0002004B010BD2046FBE7000020020020F0B50021114A4D1E174611710C3F0B46BD6016E008461C2460431668041D3551146806469D
:402CC000235014680836A3551468361DA353044616680A34335318301468491C255078688142E5D30020F0BD2C02002038B500210091002811DB0F49097888420DDA0D4DB3
:402D000004010C3529680859002807D0201D0818694600F071F9002801D0002038BDFEF795FB28680F34015D491E0155FEF78AFB009838BD3C020020F7B582B00025029873
:402D40006E1E06602E48D21C024017462D4A2C4610460C380178106805E02301C358002B0FD0641CE4B28C42F7D3711C28D03401211D40180191039900F02CF900281FD163
:402D800001E02646F1E71F48016820460C300F521C480399026820460E30115419480399026820460F3011540398784300F0A0F8144900280968085102D00024009011E093
:402DC00001251AE00F48016801980818009900F02EF9002801D0012502E00098C0190090641CE4B203988442ECD3002D05D10298066004480179491C0171284605B0F0BDE2
:402E0000FCFF000048020020F8B50D4600216A468C461180002839DB23490978884235DA214B04010C3319680A59002A2ED020460C300B5A801C0E5C1846704380189542AE
:402E400024D3854222D2002006E007465F43BF18AF4206D0401CC0B2B042F6D36046002814D0114E271DC8190C366A46294600F008F900280AD168460088012808D030682A
:402E80002946C01900F0D3F8002803D00120F8BD0020F8BDFEF7DAFA30680F34015D491C0155FEF7CFFAF3E73C020020F8B50F46002400F033F8002817D10C4900220B469D
:402EC0000C334A600EE021011D680E466A501D680C36AA53B61C1D680F31AA551D68641C6A54E4B2BC42EED31A71F8BD3C020020014610B5002000290CD0C91C064B8A083D
:402F0000596892005C888A18A24202D898685A60401810BD002010BD3C020020F8B5064600200F4D009029700C0121466846FEF729FE00280CD129460C3100980860301BF8
:402F4000001F84B221466846FEF71CFE002801D0FF20F8BD6C800098A8600020F8BD00003C020020F8B5002827DB19490978884223DA174C05010C342168485900281CD0E4
:402F800028460C30085A009028460E300E5C401C0E5420682F1DC01900F064F800280CD12068002445590EE0094829460C300068C01900F03CF8002801D00120F8BD0098A3
:402FC0002D18641CE4B2B442EED30020F8BD00003C02002030B50D4604000BD0A800FFF787FF6060002805D000202570C0436080002030BD012030BD70B50D46040005D090
:40300000002D03D00220205E002801DA012070BDFEF71CFA0221615E60688900405828606088401E6080FEF70DFA002070BD70B50D46040007D0002D05D002212078615E03
:40304000401E814201DB012070BDFEF7FFF96088401C00B26080616880000D50FEF7F2F9002070BD10B5040009D0227800216068FEF7FEFB0020C0436080002010BD01204B
:4030800010BDF0B500231D46002802D00224045F0AE00120F0BD46689F00F6598E4201D1012503E05B1CDBB29C42F4DA15700020F0BD0000014800787047000050020020AA
:4030C0007CB505460024FEF7E5FBA8796946087000A8062229460130FEF7C1FB0021684604F018F90C2804D0072804D01F2804D004E0022402E0042400E0272420467CBD1A
:4031000010B500F01BF9FFF721FAFFF725FA10BD10B503240CF082F8002810D10CF026F800280CD104F04CFE002808D100F0C8FA002804D104F048FB002800D100242046A1
:4031400010BD7CB505460024FEF7A4FBA8796946087000A8062229460130FEF780FB0021684604F0E9F80C2802D01F2802D002E0022400E0072420467CBD70B5002504461D
:4031800000280ED0A07901280BD8FEF783FBA0790028204602D002F01BFE03E002F0D0FD00E00125284670BDF0B589B015460F4606460124FEF76EFB002E20D0002F1ED012
:4031C000002D1CD0102239466846FEF748FB1022314604A8FEF743FB102168460BF040FF102104A80BF03CFF2B46102204A9684603F0F6FC102128460BF032FF0024204633
:4032000009B0F0BD38B504460120002C20D0617801291DD800290BD0FF25E535FEF73AFB2846FFF795F8C0B22070072803D00EE0FF25CD35F2E70020694608706846FFF783
:403240009FF969460878012801D108202070002038BD70B504460120002C1FD06178012902D92278092A19D8002905D0FF25E5352078092803D004E0FF25CD35F8E7072090
:403280002070FEF707FB2078082808D00020FFF7B3F921782846FFF761F8002070BD0120FFF7AAF90721F5E710B50B480024807B00280ED0FFF74AF9062801D0032800D153
:4032C0002824054820300079022801D0012800D12824204610BD0000A807002070B50D46040001D0002000E00548002802D0012101F0A6FF2946204602F080FA70BD00006F
:40330000C807002038B5054600200446009022466946284600F06CFE0098002801D00BF05FFFA878214602F0ADF8A878214602F09CF8641CE4B2052CE9D338BD38B5FFF79D
:4033400005F9042819D0052817D006281AD0032842D007280AD100206946087002460120FFF71EF8FFF7F2F80128FBD138BDFDF791FFFFF7EBF80128F8D0FFF7E7F80128F5
:40338000F5D138BD02F0E6F805E0FDF783FFFFF7DDF8012803D0FFF7D9F80128F5D1A12424012046FEF7D4FF01220E4983079B0F0A70022BE5D149880029E2D01043014641
:4033C0002046FEF7CBFF2046FEF7C2FF410849002046FEF7C3FF38BD02F0C0F80120FFF7E5F838BD56020020F8B50646002402F0F3FD0546304602F007FE00210346012695
:4034000032468A40174610462F401840002F03D0002801D1224394B2491CC9B20529EFD32046F8BD1CB50020694648706846FFF7E9FE01AA69460A20FEF7B2FF694604205E
:4034400008561CBD10B50C4601F076F9002809D00179002906D0C1788078224602F07CFA002010BD022010BD0148007870470000940700204030C07E002800D00120704796
:4034800000B500F001F800BD88214843064940186030417F491CC9B24177052901D300214177C8B270470000A807002013B501F043F904000BD001F096FC002807D0214656
:4034C00001AA0A310620FEF76BFF00201CBD02201CBD000010B50C4601F02EF900280AD001F081FC002806D0224604490A20FEF757FF002010BD022010BD00007D07002026
:40350000F3B581B0074601460026029802F05CFD0446002F01D0002500E0154D002D21D0284601F03FF9032C04D13946029802F075FD06463846029901F097FF032C06D03B
:40354000002C10D00121384601F01AFA03E03146384602F017FF284601F058FE0221284601F06EFEFEBD3846029901F07EFFFEBDC807002070B50446002503F005FB00287C
:4035800001D00C2070BD2078611C02F0DFFAFF2802D01F25284670BD02F02CFBFF2804D02178621C01F0D6FEF4E70725F2E710B503F0EAFA002801D00C2010BD02F09EFA41
:4035C000002010BD70B50D46044610210BF048FD1021601806460BF043FD334610221946204603F0FDFA102130460BF039FD02202870204604F040F870BD70B504464078A9
:40360000217802028006850FE0781143A67809050002090D0643084601F08EF8002812D0022D10D0032D0ED0002E08D00179092909D0002907D0214600F0A1F870BD00897D
:40364000002103F04EFF20460BF0CAFD70BD0020704770B50446002503F096FA002801D00C2070BD2078611C02F070FAFF2802D002F0B2F900E01F25284670BD10B504F0D5
:40368000A3F800F0F6F8002010BD10B5044600786178E2780843A17811430843217908436179084305D003F061FA002803D00C2010BD122010BD204602F08AFB002010BDFD
:4036C00010B5044803F0CAFA02F090F900F004F8002010BD64070020F8B5114D00266E706E736E716E76AE76EE766E75AE70EE70AE712F46EE730120B03778723F2078715A
:40370000FF20B87100F00AFA0024204601F032FB641C2406240EF8D03E72FE71AE73F8BDA807002070B505460E46084602F054FC0446304602F068FC0121A9400A46224016
:4037400001400A4301D0012070BD002070BD10B50446084602F058FC0121A140014201D0012010BD002010BD10B5FEF7EFFE032804D101F0F3FE0120FEF718FF10BD70B512
:40378000044600790D4609281CD000281AD020464030817E491C8176204601F037FDA078FFF76EFE064602462946204600F00CF8002806D1A0783146FFF790FD28460BF0B7
:4037C0000FFD70BD0846FAE7F7B5054648780C468006870FC8788978000282B0014368468180284601F00AFB060007D021462846049A00F091FB304605B0F0BD384600F05E
:4038000039FC0746034601AA2946204600F0CAFA68468088231DC0B20090A878FF22049901F0A6FF684680883B46C2B2A878049902F04AFBDFE770B5002500242846FFF7E6
:40384000D3FD060010D03046E040C007C00F07D02146284601F0FDFD21462846FFF750FE641CE4B2052CEED36D1C2D062D0EE4D070BD10B502F0BAF8FFF72EFF0BF018FD3A
:40388000002010BDF8B5002400F081F80123012800D10124104F00203E4620360425082203E0002801D0002100E031460979002907D001290BD002290BD011468140214395
:4038C000CCB2401C0006000EEBD07C70F8BD1C43F7E72C43F5E70000A807002010B5FFF7D1FF10BD10B50B4681791943817103D08078114602F0ACFA10BD10B582798A435D
:40390000827102D1807802F0BBFA10BD70B5FF25D53502242846FEF71BFD0C4A9178002901D0022906D1137852789A18282A01D9032402E0032900D101244105490DE0022A
:4039400001432846FEF70AFD70BD00005202002010B500F022F8002807D0012805D0032801D0042801D0002010BD012010BD014610B50020C90701D000F009F810BD014686
:4039800010B50020C90701D000F001F810BD10B52020FEF7DDFC000A10BD10B51820FEF7D7FC410501D5042010BD4007800F10BD38B5044640060CD5684601F0D5FD0220BB
:4039C000FFF78CFF072002F02DF96846007801F03FF9200613D5FFF7E0FF01280FD1684601F0C2FD6846007800F09AFA072002F019F9012001F072FC0220FFF76FFF38BD9E
:403A000010B5034A0178117002F01BF9002010BD5202002010B50446FFF7B9FF002801D00C2010BDA27B01211848002A827801D00A4301E05208520082706279012A0FD01F
:403A4000C17849084900C170207901280CD06188208802F005FF2080207904280BD00DE0C2780A43C270EFE7E01D02F099F90848808C208002E0E01D02F092F905492079A1
:403A80008870204602F0ECF8002010BDA8070020540700205202002038B50478FFF777FF844201D10C2038BD002C18D0072069460870FFF74DFF012807D10121684600F034
:403AC0008DF8012801D0092038BD6846007802F0A9F8FFF71BFF02F0F0F8012010E0FFF737FF012806D1684601F03EFD6846007800F04AFA072002F095F802F0D5F802208E
:403B0000FFF7ECFE002038BD10B5034A0178517002F076F9002010BD5202002038B568460BF0F4FA002801D01F2038BD01210098C90201804180002505714571857107219B
:403B40004173857302F08CF8009C202200212046FDF78EFE25702A460021601CFDF788FE204602F06EF8204602F04AF900980BF037FB042200210248FDF77AFE002038BDF2
:403B8000520200200346084800B5834209D8184600F0D2FD002804D00089984201D1012000BD002000BD0000FF0E0000074A9179491C8906890E917138220A409201490718
:403BC000090E11430843024908407047A8070020FF0E0000C006C00E70470000F8B507460E4600240D4803E0002C01D0002500E005462979002905D0641C2406240EF3D068
:403C00000020F8BD204601F0B5F82E712046FFF7CDFF28813C700120F8BD0000C807002010B503F011F80222002100F003F801F085FE10BD10B5094B40074907000F090FC1
:403C4000185A595A40185043C0086421FDF766FD002800D1012080B210BD000030190100F7B53D20405C88B016460C46002829D030786946087200252046FFF7FBFB012810
:403C800000D00125204603A938300191009023460327A17E34332A46206A02F0F9FF02A8089900900B46019120463A4603A9243002F078FF02466846007A3070204601F001
:403CC00045F810460BB0F0BDFFB587B00C4605461078694608723D20005D1746002826D000262046FFF7C6FB012800D00126204603A93830019100902346A17E34333246F5
:403D0000206A02F0C5FF02A80090291D019120462B1D03A924300A9A02F044FF02006846007A388002D1204601F010F810460BB0F0BDF7B53C20405C88B015460C46002827
:403D40000CD0287869460872002806D000262046FFF790FB012803D003E01F200BB0F0BD0126204603A938300191009023460327E17E34333246E06902F08AFF02A808996A
:403D800000900B46019120463A4603A9243002F03BFF02466846007A2870204600F0E0FF1046DBE7FFB505463C20405C87B016460C46002810D0084601F020F801280BD0EA
:403DC000308869460883002809D000272046FFF751FB012805D005E000200BB0F0BD0220FBE70127204602A93830019100902346E17E34333A46E06902F04AFF06A800905E
:403E0000291D019120462B1D02A924300A9A02F0FBFE02466846008B30806846008BA870000AE870204600F09BFF1046D5E770B50D460446FFF71EFB01280AD0E87AA97A2F
:403E400000020143A07801F049FC012808D0002070BD00222421204602F04CFC242070BD28214C200155204600F09AFB282070BD002801D0002000E003484030C07F012861
:403E800000D0002070470000C80700200146002049070ED50021084B03E0002901D0002200E01A461279022A04D0491C0906090EF3D0704701207047C80700200146002061
:403EC00049070ED50021084B03E0002901D0002200E01A461279022A04D0491C0906090EF3D0704701207047C807002010B5044680346068002803D00BF086F900206060A5
:403F000010BD4030417070474030817070474030017070470171704792001018C166704770B53C2501F0F4F8040004D020460021433001F08DFB2946204600F0C0FB002C11
:403F400002D0A07801F076F870BD000010B5002801D0002000E00348002802D0008903F007FB10BDC807002010B5002801D0002000E00448002804D00179072901D100F01C
:403F800041F810BDC807002010B501F0C1F8002802D0807801F04EF810BD00207047000070B50546008A00281ED010491122897A1140C90618D5294640314A8A098A521C6F
:403FC0004A4392B2D10800D10121540801E0621A94B2A042FBD9FFF76DF8012804D1298AA878224601F058FC70BD00005407002000230B60052A04D292001018C26E0A6007
:40400000C366704738B5044600200090A079002814D14020015D052901D00E290ED168460BF084F8002809D12046009902F04AFB03481021C28A2046FFF754FC38BD0000FA
:404040005407002010B50B4604460146184602F019F8002802D020460BF0CCF810BD13B5044601AA11460620FEF79AF96846818861811CBD002800D1022070477047000014
:40408000F8B504462346401D543300909A1EA078911E01F078FA25464035A88A298A8000FDF73CFB401E81B2688A884203D96982A07801F04AFF20460021433001F0C8FAC7
:4040C0008020FEF745F9E88102F0BEFDE989891C8AB26179FFF7AEFD01F030FC02F0B4FD2A8A6179FFF7A6FD074601F019FC688A00280BD0FF26F1363046FEF729F90321DD
:40410000090201433046FEF729F902E0002001F00AFFFF206130FEF71BF96E8A002E0BD070431049FDF75AFB0004000C01D0401C80B20D49488002E00B4800214180288A42
:40414000704381B2A07801F069FE2837B9B2204602F08AFBE98AA07801F0B8FDA07801F0A7F9F8BD71020000560200207FB504468034616805460E46183108226846FDF719
:404180006EFB31462031082202A8FDF768FB102168460AF065FF6068102108300AF060FF60682B46083024331022694602F018FD7FBD10B504460821FFF79FFB1021204691
:4041C000FFF79BFB207905281FD006281DD008281AD12189002003F043F9072020712046FFF748F9014620464030012913D00E21017000210176204600F028FF2046FFF7BF
:4042000075FE2046FFF7CCFE10BD20890122002103F00AF9E1E70521EAE70000FFB581B01F4604460821FFF768FB10212046FFF764FB2079082803D0092804D0042203E0CA
:404240000422012501E009220025204600F0C2FD264600204036307022712046FFF746FE0398002D02D0012808D00BE001280AD120890022029903F0D7F804E021890298FD
:4042800003F0EEF8012700203076012F04D0204600F0DCFE05B0F0BD02983073204602F055FA054605480121C28A2046FFF71AFB002DEFD109202071ECE700005407002051
:4042C00070B50C460546FFF7D5F8012809D108212846FFF712FB0023012221462846FFF79DFF70BD10B5044600F074FD2046FFF7FDFD00214034217010BD70B505461A245B
:40430000FFF7B8F8012809D108212846FFF7F5FA0023012221462846FFF780FF70BD0000F8B50446002000900E4668460AF0FEFE002801D00D20F8BD8420005908212030AB
:40434000009D00F0F4F920460421383000F0EFF9002E02D1204600F07BFD2946204602F041F90E480821C28A2046FFF7BBFA204600F0D3FE25464035002808D0204600F0EF
:4043800023F8002801D0092028700020F8BD08202870204600F03AFFF7E7000054070020014610B540310A460978082906D0092907D00A2901D100F091F810BD0B20107057
:4043C00010BD00F001F810BD70B50446007925464035052805D0062803D008280FD00C2070BD03220621204602F084F90D480821C28A2046FFF776FA1120287010E0062071
:404400002873204602F0A2F90646AA8A0A20424301212046FFF766FA002E01D109202071002070BD5407002038B504460020009068460AF07BFE002801D00D2038BD2046D6
:40444000009D00F08BF908202071204600F000FD2946204602F0F8F800213D2001550F2040210855204600F0D1FE002038BD00B5024600F0AFFC10214032117000BD10B52F
:404480000446FEF7F7FF012809D04020005D112805D100231A4606212046FFF7BFFE10BD10B5FFF786FE10BD38B504460021684600910AF03BFE00280CD12046009902F09D
:4044C0003AF905480821C28A2046FFF70BFA0D204034207038BD00005407002038B504460021684600910AF021FE002801D00D2038BD2046009902F013F905480821C28A3B
:404500002046FFF7EFF90C2040342070002038BD5407002000787047F8B50025002801D0002400E01A4C002C28D0204600F05BFC002823D0207903281CD005281CD02646F2
:404540004036B18AA07801F077FCB078012815D10021204601F0B3FD274680373868002802D00AF051FE3D600020B0702079072805D007E0042000E006202071F8BD204671
:40458000FFF70EFD0221204600F05AFEF8BD0000C807002010B54C22115400F046F810BD10B50446FF21FFF7A8F909202071A07801F072FC10BD000038B5FF216A461180E0
:4045C000002801D0002400E0064C002C08D011460620FDF7E5FE684601882046FFF73FFD38BD0000C807002010B504468079002809D022214C200155FF212046FFF77DF961
:40460000204600F012F810BD10B5037902464032002B03D01173092B02D003E0002100E02221117300F001F810BDFEB504460089002701902781207926464036002817D0F9
:40464000012815D002280AD112E002AA6946204601F006FD002807D100980AF0CBFD204601F026FD0028F0D02046FEF74BFEB776254680352868002802D00AF0C5FD2F60FE
:404680006868002802D00AF0BFFD6F60317B002902D0019800F044F8A078002100F01CFF2046FFF7BDFAA07801F002F8A07800F0C1FC0B20FFF712F900F000FCFEBD70B528
:4046C0000E46054602F0BCFA044606702846FEF7D1FE014601204140204661700C3000F0A0FF002D10D02889608028464030C1782171002E10D169796171018AE180418AD5
:404700002181808A608107E01820FDF721FEC005C00F207100206080204602F04AFE70BD0A4610B50146002002F03AFF10BD10B50AF072FA10BD000000B50146FFF74AFA26
:40474000002801D0002000E00348002802D002898A4200D0002000BDC807002038B5044680346068002806D168460AF0EFFC002801D100986060606838BD000010B50146A8
:4047800000F03CFB0128887802D0FEF77DFE10BD88214843024940186030007F10BD0000A807002070B5054604464035A87F012811D1A1788820084A484380186030067F6C
:4047C0003046FEF7AFFF002805D10220A877A078314601F021F870BDA807002010B50E4CE079002816D0FFF726F80C48827FC17F808B00F06BFB01280CD10020E07100F0D5
:40480000BCFE0446AC20FDF7A3FD010B02D0204600F00EFA10BD000058080020A807002070477047490510B5490F0B00FDF744F9060704080C0C0F073E21FFF7ABFE10BD95
:404840000821FFF7E1FE10BDFFF7EFFE10BDFFF7CBFE10BDF8B507460025002D01D0002600E0204E00F064FE3046403044890021418100F067FE304600F0B5FA01282BD129
:40488000A00702D52846FFF747FEE00602D52846FFF792FEA00601D5FEF7CDFF600601D500F0C8FA200602D5284600F01DF8600702D5284600F0FAF9380402D52846FFF77F
:4048C00053FB780402D52846FFF740FBE00703D021463046FFF7A6FF6D1C2D062D0EBCD0F8BD0000C8070020F8B5002801D0002400E0204C002C39D025464035A8780128AB
:4049000034D1E98AA07801F0E1F92046FEF7B2FD01282BD002F098F92A8A6179FFF78AF9064600F0FDFF2836B1B2204601F09CFFE98AA07801F0CAF9FF206130FDF708FD91
:404940006E8A0D4F0146002E11D0304648430B49FCF744FF0004000C01D0401C80B27880288A704381B2A07801F058FAF8BD0020F5E70000C807002056020020710200001D
:4049800070B50D46124A010001D0002401E014462034002C1BD0204600F030FA01280AD18820484380186030007FFEF7BBFE002801D101F055FE20464030817E491B81760D
:4049C000204600F023FC2089294602F08AFD70BDA807002070B503460088FFF7ADFE040013D000F000FA00280FD02079092819D02546997840352973204601F0A7FE0646BE
:404A0000A878012803D0AA8A02E0022070BDEA880A20424301212046FEF764FF002E01D109202071002070BD0EB5002217216B460292198100905A810120029B00990AF035
:404A400055FC0EBDF8B5184E0024F079002820D10025AC20FDF77CFC000B21E0204600F007FEFDF775FC07462A46214600F02EFA01280FD00D48012187838577C477F171DA
:404A8000002D01D0002000E02030002801D000F0BDFBF8BDAC20FDF75BFC000B641CE4B20028DBD1F8BD000058080020A807002010B50088FFF740FE002809D00146403108
:404AC0000C460978082905D00B2903D00C2010BD022010BDFFF778FC002801D009202070002010BD70B503460088FFF725FE040008D0254640352878082805D00B2803D06F
:404B00000C2070BD022070BD8420005910220830991CFCF7A4FE2046FFF728FB2878082804D02046FFF7DAFC002801D00A202870204600F06BFB002070BD000010B50C46EC
:404B4000002121700088FFF7F7FD03000BD000F04AF9002807D009481121807A0840C00603D4112010BD022010BD022020701A8A1889002102F030FD002010BD5407002013
:404B8000F8B50F46002100910088FFF7D5FD040012D000F028F900280ED0E079410641D4617E02264A07002A08DB8907402500291ADA2843E07135E00220F8BD02F040F8F6
:404BC0000021017021894180A1898180217E4170E189C1803E7005460178134802F062FA284602F09DFC1DE0204600F00DF9012806D068460AF09AFA002803D00720F8BD13
:404C00002A20F8BDE07900992843E071204601F0C7FD607E0421304360760448C28A2046FEF760FE0020F8BD1D040000540700203EB500220F236C4602922381009101904B
:404C4000628169460EC900200AF050FB3EBD000070B5054600F05CFA040021D003202071254600264035EE76E6702046FFF708FA01F01AF80920FEF731FEA07800F006FD93
:404C80000121204600F0DCFA2E706E70AE7000212046FFF714FD0449887B401C887370BD284601F0F9F870BDA807002010B5002801D0002400E00A4C002C0FD02046403065
:404CC000417802290AD1002141702046FEF7D2FB002803D10221204600F0B2FA10BD0000C807002070B503460D460088FFF724FD04000BD000F077F8002807D012481121F5
:404D0000807A0840C00603D4112070BD022070BD20464030418A008A491C41430804C10C5888884201D2122070BD20822079072802D12046FFF734F90220287020890021D4
:404D400002F072FC002070BD54070020016A491C016204D1817E491C4906490E81767047C169491CC16104D1C17E491C4906490EC176704770B500250646002801D00024DA
:404D800000E0114C002C1CD0882200212046FCF76FFDA67000202646207140363070204600F018F8204601F07FF9084820820848B577807A1121084000D001202075012007
:404DC00070BD002070BD0000C8070020B80B000054070020002101628176C161C17620300177417770470079002805D0012803D0022801D001207047002070474030807F76
:404E0000002800D00120704740300078002807D0012805D0052803D00E2801D0012070470020704710B5807801F0EEF8002800D0012010BD10B500F0A0FB0446AC20FDF733
:404E400087FA010B02D02046FFF7F2FE10BD000070B5054604464035A87F002823D1FF206075A0788821144A484380186030417F8823491CC9B24177A078584380186030A4
:404E8000052901D300214177A0788821484380186030467F0677A1783046FEF743FC002802D00120A87770BD0220A877A078314600F0B2FC70BD0000A80700200020401C51
:404EC0000006000EFBD0002070470000F0B515468207920F85B0C004C00E02926A469080002D01D0002400E0514C002C29D0084600F0BEFB03906846808800280BD0029816
:404F0000012845D0022843D003280CD03D20005D012872D086E00398FDF71AFA01462046FFF79DF87EE00020029002A80AF0DEF8002807D03D20005D012876D12046FFF77A
:404F400005FF72E06846029E8388324600210398FDF774F90398FDF7FBF901462046FFF77EF8284600F0B0FA01AA21463046FEF777FE002806D030460AF028F93D204C21FE
:404F8000085528E0F5773146204601F0DBF94CE000200090278968460AF098F8002802D0002005B0F0BD6846009E8388321D00210398FDF743F90398FDF7CAF901462046AD
:404FC000FFF74DF8284600F07FFA25464035287E00280CD103E02046FFF7E2FA25E001AA21463046029BFEF76FFE002806D030460AF0E2F83D202873EDE710E00298FFF7D9
:405000003DF8390A000101433770717068468088B070000AF0703046FFF706FD05E02046FFF794FE284600F04FFA0120B9E70000C807002010B5044A917B002901D0491ED2
:405040009173FFF797FE10BDA8070020F8B5074606464037B87F00283DD0B0788821009048431F4945186035287F0099FEF76FFB012831D0287F401CC4B2052C00D300242C
:405080000020B877FF276F772F77A87702460146009800F041FD717DFF2903D0304600F0C4FF777501F0DCFA00252F462246694630460097FEF79CFF0099002902D030465E
:4050C000FEF75DFB641CE4B2052C00D300246D1CEDB2052DEAD3F8BD0320B877F8BD0000A807002010B502460021084B03E0002901D0002000E018460479944204D0491C3B
:405100000906090EF3D0002010BD0000C807002000B50120FFF7E6FF00BD10B5044601F08FFD2189018080346168416061682831816002F0AFF910BDF7B50646087982B052
:405140000C46092807D0A078F0770846FFF756FE012806D010E030460AF04CF8022005B0F0BDA1788820284A484380186030007FFEF7D8FA012810D0A078FEF779FE0128B5
:405180000BD037780121304601F017FA25462035062F36D00B2F0FD107E06846027C21463046FEF74FFF0D20D9E72046FEF762F9012801D1002028772046FFF7DFFA0546A6
:4051C00004AA21463046FEF7B4FD01205F2108556946087C0090A07833463A46294600F0C7FA69460A7CA0780323294600F06CFEA0782946FEF772F8304609F0FBFF0020E1
:40520000ADE70120D7E70000A807002010B502464032937F0021002B03D1927E002A00D00121064AD279002A00D000210279092A00D10121807800F063FE10BD5808002062
:4052400070B50C460646FEF715F9002814D1012C0ED935464035A87800280DD1687802280AD03079092807D03046FFF7DBFD0446204600F080FD70BD0124F9E770B50D4691
:4052800001280BD0082808D1A8241146B020FDF765F829462046FDF761F870BD2020FAE710B501460820FDF759F810BD10B50446FF20F130012C01D1FF20D530002200F063
:4052C0006AFE1020FDF744F80349A043088001461020FDF743F810BD5A02002010B504461020FDF735F80449A043088001461020FDF734F810BD00005A02002010B5044639
:40530000012802D0082C07D102E0FF20D53001E0FF20F13000F034FE1020FDF719F804492043088001461020FDF718F810BD00005A02002010B504461020FDF709F804496B
:405340002043088001461020FDF708F810BD00005A020020F8B507460120B84085B214460E46012229467C2000F015FE32462946782000F010FE6078217800020143E078D9
:40538000A5780002054360792679000206430C2047430D2080013C182046FCF7DFFF241D29462046FCF7DAFF201D3146FCF7D6FFF8BD8B00034310B5D10191201943C0008C
:4053C000FCF7CCFF10BD000070B505460C46407829780002014341200001FCF7BFFFE878A978000201430A48FCF7B8FF60782178000201438320C000FCF7B0FFE078A178BE
:405400000002014302480830FCF7A8FF70BD00001404000070B50D46044681B201208002FCF79CFF210C0448FCF798FF81202946C000FCF793FF70BD0404000070B50546A2
:4054400000242846FCF784FF641CA4B2102CF8D370BD10B50C460146B020FCF77FFFFF2021462D30FCF77AFF10BD10B50C460146B020FCF773FF204600F0B8FD0021FCF7AD
:405480006DFF10BD70B50C46054600F005F821462846FFF7DEFF70BD10B50C460146B020FCF75CFFFF2021462930FCF757FF10BD10B50146B020FCF751FFFF20002220211D
:4054C0001D3000F068FD10BD010210B54D310020FCF744FF10BD000010B504020029014608D0B020FCF73AFF214675310020FCF735FF10BDB020FCF731FF512000214001DE
:40550000FCF72CFF00210348FCF728FF21467631ECE70000240A000010B554210020FCF71DFF10BD10B553210020FCF717FF10BD10B5034908884880FFF7D0FE10BD000059
:405540005A02002010B502484088FFF7F3FE10BD5A02002010B5FCF7E3FF10BD10B552210020FCF7FBFE10BD10B504461820FCF7EFFE8004400F207010BD10B5B020FCF751
:40558000E7FEC0B210BDF8B50E4601461C461546B020FCF7E3FEFF20E930FCF7D9FE0746FF200130FCF7D4FE3080FF200930FCF7CFFE2880FF200530FCF7CAFE208079071B
:4055C0000698490F0170F8BD10B5C820FCF7C0FE10BD10B50C46002812D05820FCF7B8FE2070000A60705C20FCF7B2FEA070000AE0706020FCF7ACFE2071000A607110BDD9
:40560000FF20C130FCF7A4FE2070000A6070FF20C530FCF79DFEA070000AE070FF20C930E8E770B504466820FCF792FE06466C20FCF78EFE05467020FCF78AFE2670310A70
:405640006170A570290AE1702071000A607170BD10B50446012905D01820FCF779FEC00B207010BD4820FCF773FE8007C00FF7E70120C002704710B50C460146B020FCF794
:405680006DFE0321A0014902401810BD8821074B414310B5C918FF2260314A770A7700228A77114600F038FA10BD0000A807002088225043074A10B58018FF2160304177A6
:4056C0000177002181770448418EFF201D3000F057FC10BDA80700205407002010B50C460146B020FCF73AFEFF202530FCF730FE0222214600F002F810BD000010B5002320
:40570000884201D8081A03E00024E443201A4018044980B2884201D8824200D90123184610BD0000FF7F0000F8B503465078167800020643D07895780002054350791779C9
:40574000000288240743002900D098241946B020FCF704FE31462046FCF700FE201D2946FCF7FCFD204608303946FCF7F7FDF8BDFFB581B014460D4606460A9FFFF77BFF42
:405780003B460021049AFCF7C9FD02484019845505B0F0BD5E02002070B506460D4611242520A40108214001FCF7D8FD2B46324600212046FCF7B2FD70BD70B52124054689
:4057C0006401FFF7AFFE10232A4600212046FCF7A5FD70BD10B5044640782178000201438F20C000FCF7BAFDE078A178000201430148FCF7B3FD10BD7C04000010B50C46EF
:405800000146B020FCF7AAFD802021460143FF202930FCF7A3FD10BD70B50D460146B020FCF79CFDFF241D342046FCF791FD01090901FF202943013001432046FCF78EFD26
:4058400070BDF8B500242646012807D0032802D0052808D105E002240A2604E004240C2601E004240D26492701463F013846FCF775FD25204001FCF76BFDC5B22846204204
:40588000F7D0252031464001FCF768FD00213846FCF764FD2846F8BD70B50D46044601461646B020FCF75AFD512029464001FCF755FD31460648FCF751FD032189030820F3
:4058C000FFF71CFD210275310020FCF747FD70BD240A000070B50D4604460146B020FCF73DFDFF2029461930FCF738FD21024B310020FCF733FD70BD70B5491E8CB20546F5
:405900000146B020FCF72AFDFF2021461930FCF725FD29024C310020FCF720FD70BD0000054910B5884200D908460146FF206130FCF714FD10BD0000FF0F0000054910B560
:40594000884200D908460146FF206530FCF706FD10BD0000FF0F000070B588251446002900D098250146B020FCF7F8FC2846FCF7EFFC2070000A6070281DFCF7E9FCA070A7
:40598000000AE07028460830FCF7E2FC2071000A607170BD10B51446024611200B4680010021FCF7A7FC012C01D1FFF7B5FD10BD10B504460920C001FCF7CAFC2070000A9C
:4059C00060700448FCF7C4FCA070000AE070FFF7A3FD10BD840400000121814010B589B200227C2000F0D7FA10BD000070B5FF210120FFF75BFCFF210820FFF757FC3020C0
:405A0000FFF76CFC80210020FCF7A8FC002211460320FCF7C5FC374DFF20A98DD530FCF79DFC0024FF26F1362146B020FCF796FC298F3046FCF792FC2046FFF739FE641C08
:405A40002406240EF0D0FF20A98FF930FCF786FC28481030044600F073F9204600F0B8F900F04CF8234CB82040346188FCF776FCA188BC20FCF772FCE188C420FCF76EFC6B
:405A8000FF20698EE130FCF769FCA12000210001FCF764FC3920FFF74DFCFFF743FD93200721C000FCF75AFCFFF736FDE020FFF7C5FCE820FFF7C2FCF020FFF7BFFC002002
:405AC000FEF7AEF8618A0C48FCF748FC0A482821001DFCF743FCFF210131AC20FCF73EFC832000218000FCF739FC5B210020FCF735FC70BD54070020140A000010B5002188
:405B00007C20FCF72BFC00217820FCF727FC74210020FCF723FC10BD70B50D4601461446B020FCF71BFCFF261D363046FCF710FC01090901FF20294301308143002C01D1DA
:405B4000102041403046FCF709FC70BDF3B589B0FF2001900D208001009048780D7800020543C8788E780002064348790979000201437C200791FCF7EBFB06907820FCF733
:405B8000E7FB059074210020FCF7E8FB18480024049026E00120A04087B20098FCF7D8FB03900098FCF7D4FB02900098FCF7D0FB039A29465140029A72401143079A4240F6
:405BC00011430BD10698074208D00598E040C1070998C90F814201D1019405E0641C0498E4B20078A042D5D801980BB0F0BD00009407002070B5FF257C20FCF7A9FB084967
:405C0000002401230A7805E01946A140014205D0641CE4B2A242F7D8284670BD2546FBE79407002010B504461820FCF791FB0721C90288436107890C01431820FCF78EFB78
:405C400010BD10B50446E020FFF7F8FB20782246401CC3B20021E020FCF70CFB10BD000010B5044641790079042817D040000843A17B032901D8C9000843617B4A01024325
:405C8000A079010207201143C00201431820FCF765FB21881C20FCF761FB10BD08460149E5E700000204000010B50120FFF716FB41210020FCF752FB10BD10B50120FFF7F9
:405CC00039FB40210020FCF749FB10BD10B50C460146B020FCF742FBFF2021460D30FCF73DFB10BD70B50C4601461E461546B020FCF734FBE92021468000FCF72FFB7520C1
:405D00002946C000FCF72AFBEB2031468000FCF725FB6C433B20A1B20001FCF71FFB70BD70B50C4601461546B020FCF717FB21468420FCF713FB29468020FCF70FFB70BD3C
:405D400010B504464078217800020143FF20C130FCF704FBE078A17800020143FF20C530FCF7FCFA6079217900020143FF20C930FCF7F4FA10BD70B5A12405462401204688
:405D8000FCF7E6FA012D07D041084900814202D02046FCF7E3FA70BD014601221143F5E710B5044640782178000201436820FCF7D5FAE078A178000201436C20FCF7CEFAF9
:405DC00060792179000201437020FCF7C7FA10BD10B5044640782178000201435820FCF7BDFAE078A178000201435C20FCF7B6FA60792179000201436020FCF7AFFA10BD99
:405E000010B50446E820FFF719FB20782246401CC3B20021E820FCF72DFA10BD10B50C460146B020FCF79AFA21460248FCF796FA10BD00001C0A000010B50C460146B02056
:405E4000FCF78CFAFF2021460530FCF787FA10BD70B5054688000521FBF760FC84B22946B020FCF77BFA21460448FCF777FA290272310020FCF772FA70BD0000040A0000C5
:405E800010B504460146B020FCF768FA210273310020FCF763FA10BD10B504460146B020FCF75CFA210270310020FCF757FA10BD10B504460146B020FCF750FA21027131D7
:405EC0000020FCF74BFA10BDF8B505461E4614460F46084600F08AF800902802A1000843304304462946B020FCF738FA21460098FCF734FA0148C0194655F8BD63020020D4
:405F000070B50D460146B020FCF728FAFF241D342046FCF71DFA40218843A90101432046FCF71CFA70BD70B5A124054624012046FCF70EFA0222002D01D0104300E0904340
:405F400001462046FCF70AFA70BD70B50D460146B020FCF703FAFF2029460930FCF7FEF9A12424012046FCF7F3F90222002D01D0104300E0904301462046FCF7EFF970BD14
:405F800070B50C460546FCF7E3F9204301462846FCF7E4F970BDF8B516460D460746FCF7D7F9014600202C0003D104E06408401C80B2E207FAD08640A9430E43B1B23846F3
:405FC000FCF7CCF9F8BD0000024A1018405C8007800F70476302002010B50146B020FCF7BDF9FF202D30FCF7B3F910BD8000FF30413070470246FF20052902D20148401884
:40600000805C70475E02002010B50146B020FCF7A5F9FF202930FCF79BF910BD0A4600B501461046FFF7E6FF00BD38B50C46054600216846009109F079F8002804D10099F0
:4060400028464C7000F09EFB38BD10B5044680780021FFF73BFE01212046FFF7F1F810BD436E002B0CD00B60014660318B781370826E4266CA788A7000218166084670478B
:40608000FF20704710B50346446E6033002C04D0846E002C04D0FF2010BD41669A7001E08166DA70002010BD0021416681667047406E002801D000207047FF20704770B54A
:4060C0000446C0790D46810610D5DF210840E07100F0B6FD0570218941804034218A8180618AC180A18A018101F036F970BD000010B50446FEF782FE01280AD1A1788820B3
:40610000054A484380186030007FFDF70BFB012801D000F0A5FA10BDA807002070B50D460446FDF7A7F901281CD02079042801D0072816D1E879AE7900020643A078314646
:40614000FFF7CCFA012813D03246691C204600F035FA02212046FDF7D4FE01212046FFF76FF870BD01222421204600F0C3FA70BD28214C2001552046FEF712FA70BD70B508
:406180000D460646FDF753FE002847D120213046FDF7B3FB3446687840346073E87820220002E081A9780843E0816879010228790843218A814203D0F1791143F17120821C
:4061C000E8790102A8790843618A814203D0F1791143F1716082687A0102287A0843A18AE180814203D0F1791143F171A082A08A218A8000FBF792FA401E618A80B2814205
:4062000000D9608201213046FDF77EFEE87AA97A000201430022304600F0DCFA70BD0000F8B50C460546FDF725F9012849D0294EB07AC00709D02846403000900078002858
:4062400005D0102805D01F212EE01A212CE0002700E001272846FEF781FA002823D02E4680360822611C7068FBF7F9FA7068617A20300172A17A41727068214618300822FC
:406280000B31FBF7ECFA21462846042213313430FBF7E5FA39462846FEF742F8002810D1002F0FD012E007210322284600F022FAF28A08212846FDF715FB11212846FDF7BF
:4062C00026FEF8BD06212846FDF724FE009801210176F8BD5407002010B5FEF761F810BD38B504460020009020790D46042801D007281BD12046FDF7BDF8012817D0684621
:4063000008F014FF002811D10C486A78807A00991040112210402075607E082210436076204600F079F92046FDF737FE38BD08222421204600F0DEF938BD0000540700208E
:406340007047000070B506460D460846FEF7E2F804463046FEF747FD00280CD0142C04D32946304600F0C7F805E00549A0000A58294630469047284608F028FF70BD000032
:406380004019010070B50D460021002801D0002400E00C4C002C14D020464030C177807F032802D12046FEF751FE2046FFF7A0FE142D04D20449A800095820468847FEF73F
:4063C0007DFD70BDC80700209019010010B5014640310C4609780E2903D1FEF725F80120207610BD10B54021095C0F2901D1FEF73EF810BD4021095C0F2902D1002120309D
:406400004177704738B5044600220E4800920D46807A11210840C0060ED52046FEF7F4FC012809D0684608F081FE002803D12046009900F053F938BD2946204600F05BF886
:4064400038BD00005407002010B51021FDF755FA10BD10B54978FDF733FF10BD10B5FEF70EF810BD012120304177704710B54021095C0C2901D1FEF717F810BD10B5402136
:40648000095C0D2901D1FEF70BF810BD70B5044600790D46052803D0062801D0082802D12046FDF71FFF68784C21085509212046FDF730FD2046FFF7C8FD2046FCF7DAFF47
:4064C0000128A07805D0FFF7E7FC2046FEF79EFE70BDFFF7EDFCF8E710B50446FF21FDF70CFA16214C200155A078FFF7D5FC2046FEF78CFE10BD70B50C460546FEF77EFCE7
:40650000002802D02078687570BD21782846FFF78CFD70BD70B5054648780C46032802D12846FDF7EAFE6078122803D110212846FDF7E3F970BD704738B5044600200D465F
:40654000009004212046FDF7D8F968782076E8780002A081A9780843A08168790002E08129790843E081607E04210843607680070CD4684608F0DAFD00281CD12046009907
:4065800000F00EF9607E022108436076E079410611D5BF210840E07100F052FB00210090017021894180A1898180217E4170E189C18000F0B5FF38BD7047704770B504465D
:4065C000C07815460A4600280AD00020E070C1B2A078FFF7A9F8A0782946FFF77BF970BD0120F3E770B50546042008700C468420415908222031601CFBF731F92946204687
:40660000042238310930FBF72AF90D2229462046FEF792FD002070BD70B5054609200C46087008220021601CFBF722F9287D607004480922C07AA07029462046FEF77CFDF8
:40664000002070BD540700200B4610B501460B20187001221846FEF76FFD002010BD0000FEB50024164F03E0002C01D0002500E03D462846FFF71CFD00281BD15F20405D22
:40668000002817D16A4601A92846FFF7E9FC002810D1019869460A7806782946FEF74CFD022E07D1A8780121FFF72AFC09212846FDF730FC641C2406240ED5D0FEBD0000CF
:4066C000C807002010B50B46122119708178D977014601221846FEF72FFD10BD10B50B46132119708178D977014601221846FEF723FD10BD38B50546002000900C4668462C
:4067000008F014FD002801D0072038BD00980D210170447002222946FEF70EFD002038BD0B4610B501460520187001221846FEF703FD002010BD0B4610B501460620187030
:4067400001221846FEF7F8FC002010BD38B5054600200090684608F0E9FC002801D01F2038BD009C022020704C20405D6070A878E0772846FFF769FC022229462046FEF7CD
:40678000DBFC38BD10B50B46072119708178D977014602221846FEF7CFFC002010BD000010B50B460A49044608880C221A704A795A709870000AD870C8881871000A5871F9
:4067C000062221461846FEF7B7FC002010BD000054070020F8B50446403417460E460546E289617B8078FFF79BFA002F0DD100F02BFAE2896979FDF71DFAFFF79FF8608A7A
:40680000002800D00120FFF78EFBE388A08A984200D90346628A218AA878FFF763FAA08A218AC000FAF77AFF81B2ED208000FBF795FDE089E188C0080A30081881B2192082
:40684000C001814200D90146A878FFF7F5FAA8783146FFF751F801212846FEF7F1FCF8BD00B500F01FF800BD10B50A4604460B491046FAF753FF4034C01C218A80B28142BD
:4068800000D208464900081A81B20548E182C089002802D0884200D2E08210BD710200009407002040184008704770B505460C46000702D5A0B2FDF7CDFFE80702D0200E36
:4068C000FDF776F870BD70B5054650C8FCF736FDFBF7BEFB2889C01F0300FBF7EDF80C07130B171A1D0B0B200B100C0BA0B23146FFF7DBFF70BD204600F040FB70BDFDF7E7
:406900006DFF70BD2046FCF778FE70BDFCF793FF70BDFDF785FF70BDFDF783FF70BDE0B2FEF790F870BD0000F3B5002483B0064627460094019408200294FBF709FD0546AA
:406940000640400713D55020FBF702FDC0B20090700707D5009CA00803D1FBF7DFFB012800D10127002204200099FEF787FC28074ED5A820FBF7ECFC0146644842890A4390
:406980004281002208200091FEF778FC300739D50098044340062CD5FF200930FBF7D8FCFF201D30FBF7D4FC8006C00F0190FF200930FBF7CDFC00281BD00198002818D163
:4069C000534801214170FF20F130FBF7C1FC0321090288430146FF20F130FBF7BFFCA1200001FBF7B5FC02210143A1200001FBF7B5FC00981021884303D1FBF78FFB0128CE
:406A000000D101270098C00602D50220FBF7DEFDA8070CD53820FBF79BFCC1B2B00702D508040443012700220220FEF727FCE8071DD02020FBF78CFCC0B20090F0070BD086
:406A400000980221000604430098884303D1FBF765FB012800D101270098800702D50220FBF7B4FD002201200099FEF707FCE80605D50120FBF79AFD1020FEF711FCA80682
:406A800028D5FEF7A1FD234908800120FBF78EFD214900200870FF200930FBF759FC0090FF201D30FBF754FC80060099C00F00290DD000280BD116494870A1200001FBF712
:406AC00047FC02210143A1200001FBF747FC2020FEF7E6FB680602D54020FEF7E1FB0720694608810020009601944881002F07D069460EC90498002804D0002008F0D2FBED
:406B000005B0F0BD002008F0F1FBF9E708080020560200206802002051020020F0B587B0054605A81E461746019100900C9C04AB06AA02A903A800F0C6F82846FEF73DFE0A
:406B400021463046FEF728FE6846017A0398FEF761FC05A904A8FEF737FC6846027E21463846FEF726FC07B0F0BD000070B50548C4782046FCF7FBFE05462046FDF786F9D3
:406B8000284370BDA807002070B5054884782046FCF7F5FE05462046FDF790F9284370BDA8070020F8B5069E1F463478231FDDB23B460095FFF7B2FF3819001FFEF70AFEC2
:406BC0000520FEF73EFE0446012229460798FEF7E1FE3570E00701D00020F8BD1F20F8BD70B51C4615460E46FEF7E7FD29463046FEF7D2FD0320FEF724FE012229462046E0
:406C0000FEF7C8FE1F2070BDF8B5069D079E2C780094FFF783FF0120FEF713FE0746002221463046FEF7B6FE3019FEF7C1FE241D2C70F80701D00020F8BD1F20F8BD0000F9
:406C4000004870476408002008B56A4600210B20FBF7A6FB6846007808BD000010B50B4C094923460833A160002142189278002A00D05A54491CC9B20429F6D3FF21A06814
:406C80009A314843A06010BD04030201A807002070B5059C049D2070060A6670060CA670000EE0704806D101400E0843207104221946601DFAF7D3FD204604222946093034
:406CC000FAF7CDFD70BDF8B5079C0E46E178069D09020160A77839430902016067783943090201602778394301602079611D4006400E30702079C009107004221846FAF7B4
:406D0000AEFD2146042209312846FAF7A8FDF8BD10B5FEF759FC084A916848408108C3084409414063405940C30F59404008C9070843906010BD0000A807002010B50122A6
:406D400000F016F810BD000010B5054802780121002A017002D10120FBF742F8002010BD6C02002010B5002200F002F810BD0000F8B5204D0F4629781646012904D02978BB
:406D8000022901D01120F8BD0C2148431A494418E078A178884201D31220F8BDFAF756FB62780C2361685A4351188CCF8CC1E178601C491CE1706178491CC9B20170A278F3
:406DC000914201D1002101706868401C68602878012803D0FAF736FB0020F8BD02202870FAF730FB002E03D00020FAF7F9FFF3E70120FAE76C020020E409002010B5114860
:406E0000002101704160C0220F48FAF731FD0E4890220021C030FAF72BFD182200210B48FAF726FD0948102181700C21817306494160C03101610649816006494161FAF7EA
:406E4000B7FF10BD6C02002094080020E4090020C7680000057E0000F8B50025114C01262F462078002811D001280FD0022802D0032813D111E000F017F8FAF7E7FA60687D
:406E8000002800D12670FAF7DDFA07E02078002806D02078012803D000E02770002DE0D00020F8BD6C020020FEB51F4D1F4E0027FF2400200C2141438919C978002901D02F
:406EC000044602E0401C0228F4D3FF2C2AD0FAF7BDFA0C204443A41921780C2260685143081801460EC9029301920091076047608760E078401EE0702078401CC0B22070D1
:406F0000A178884200D127706868002802D06868401E6860FAF796FAA1680029C8D068468847C5E7FEBD00006C020020E409002010B5830A082B02D008F0DEF910BD00F099
:406F4000CFF810BD10B50C460146207800F042FC0028204603D000F007FF002010BD00F0B8FB1F2010BD10B5820A082A02D008F071FA10BD00F056F910BD0000F8B50446DE
:406F800040782578000205430020694608702846FFF7E9FF012827D16946A0780978884222D01C498D4208D0891D8D4205D0C91C8D4202D0C91C8D4204D11221284600F084
:406FC00071F80CE00022022805D32079E178000201430A05120D12212846FFF7A9FF204608F0CCF81220F8BD0B4EA80A08282A4631460AD0E01C08F077FA204608F0BEF8F5
:407000003146284600F00AF8F8BDE01C00F018F9F3E700000D200000FC090020F8B50D4604460020694608701A48844208D0801D844205D0C01C844202D0C01C844201D1EA
:4070400001200870A00A08280A462946204609D008F09CFA064668460078002805D0012815D110E000F006F9F4E70022002D05D068782978000201430A05120D31462046E3
:40708000FFF756FF03E03146204600F00BF83046F8BD00000D2000000148407A7047000058080020F8B5054600200E4600906946082000F007FB002801D00720F8BD009C0A
:4070C0000F202070A670FFF7E7FFE0702571280A6071042060702146FF20FFF733FFF8BDF7B5064682B000204B4A4C4B00900420B11AF718964218D008DC002F0FD0012FB9
:407100000FD0052F0FD00D2F12D10CE0032908D005290CD006290AD0072909D101E0072006E00C2004E0052002E00B2000E006206946001D00F0C6FA002802D0072005B0A9
:40714000F0BD009D31462846039A00F085F8334804241338301803D0052801D0062805D10499A9710499090AE9710624039800284BD12949891F701A8E4227D006DC002F85
:407180000BD0012F11D0052F3FD11CE0062823D009282CD00D2838D12FE028191B2181700021C170A41C042012E02E19B01C08220021FAF75DFB1A481122817A1140B170C9
:4071C000C07AF07020E0FCF72DF901E0FCF74CF929198870641C18E02919891C0498FCF731F9002801D068710FE0641D0DE02819801C082107F010FD06E009492819801C23
:4072000008221C31FAF72BFB08346C702946FF20FFF798FE93E7000015200000FEDFFFFF54070020C0B21F2806D8401E034AC0B2105C08700120704700207047541B0100D2
